{
  "contractName": "DepoZinciri",
  "abi": [
    {
      "constant": false,
      "inputs": [
        {
          "internalType": "uint256",
          "name": "_needId",
          "type": "uint256"
        },
        {
          "internalType": "enum DepoZinciri.NeedStatus",
          "name": "_status",
          "type": "uint8"
        }
      ],
      "name": "updateNeedStatus",
      "outputs": [],
      "payable": false,
      "stateMutability": "nonpayable",
      "type": "function"
    },
    {
      "constant": false,
      "inputs": [
        {
          "internalType": "uint256",
          "name": "_supportId",
          "type": "uint256"
        },
        {
          "internalType": "enum DepoZinciri.SupportStatus",
          "name": "_status",
          "type": "uint8"
        }
      ],
      "name": "updateSupportStatus",
      "outputs": [],
      "payable": false,
      "stateMutability": "nonpayable",
      "type": "function"
    },
    {
      "constant": true,
      "inputs": [
        {
          "internalType": "uint256",
          "name": "_needId",
          "type": "uint256"
        }
      ],
      "name": "getNeedStatus",
      "outputs": [
        {
          "internalType": "enum DepoZinciri.NeedStatus",
          "name": "",
          "type": "uint8"
        }
      ],
      "payable": false,
      "stateMutability": "view",
      "type": "function"
    },
    {
      "constant": true,
      "inputs": [
        {
          "internalType": "uint256",
          "name": "_supportId",
          "type": "uint256"
        }
      ],
      "name": "getSupportStatus",
      "outputs": [
        {
          "internalType": "enum DepoZinciri.SupportStatus",
          "name": "",
          "type": "uint8"
        }
      ],
      "payable": false,
      "stateMutability": "view",
      "type": "function"
    },
    {
      "constant": true,
      "inputs": [
        {
          "internalType": "uint256",
          "name": "_needId",
          "type": "uint256"
        }
      ],
      "name": "getHistoricalNeedStatus",
      "outputs": [
        {
          "components": [
            {
              "internalType": "uint256",
              "name": "timestamp",
              "type": "uint256"
            },
            {
              "internalType": "enum DepoZinciri.NeedStatus",
              "name": "status",
              "type": "uint8"
            }
          ],
          "internalType": "struct DepoZinciri.NeedStatusChange[]",
          "name": "",
          "type": "tuple[]"
        }
      ],
      "payable": false,
      "stateMutability": "view",
      "type": "function"
    },
    {
      "constant": true,
      "inputs": [
        {
          "internalType": "uint256",
          "name": "_supportId",
          "type": "uint256"
        }
      ],
      "name": "getHistoricalSupportStatus",
      "outputs": [
        {
          "components": [
            {
              "internalType": "uint256",
              "name": "timestamp",
              "type": "uint256"
            },
            {
              "internalType": "enum DepoZinciri.SupportStatus",
              "name": "status",
              "type": "uint8"
            }
          ],
          "internalType": "struct DepoZinciri.SupportStatusChange[]",
          "name": "",
          "type": "tuple[]"
        }
      ],
      "payable": false,
      "stateMutability": "view",
      "type": "function"
    }
  ],
  "bytecode": "0x608060405234801561001057600080fd5b50610b77806100206000396000f3fe608060405234801561001057600080fd5b50600436106100625760003560e01c80633cffd38f1461006757806381a1c6aa1461009757806381b0d382146100b3578063d62646d0146100e3578063f7e56704146100ff578063fb96b6a31461012f575b600080fd5b610081600480360361007c919081019061069c565b61015f565b60405161008e9190610974565b60405180910390f35b6100b160048036036100ac91908101906106c5565b610265565b005b6100cd60048036036100c8919081019061069c565b61031c565b6040516100da91906109b1565b60405180910390f35b6100fd60048036036100f89190810190610701565b6103e0565b005b6101196004803603610114919081019061069c565b610498565b6040516101269190610996565b60405180910390f35b6101496004803603610144919081019061069c565b610559565b6040516101569190610952565b60405180910390f35b60606000600160008481526020019081526020016000206000015414156101bb576040517f08c379a00000000000000000000000000000000000000000000000000000000081526004016101b2906109ec565b60405180910390fd5b60016000838152602001908152602001600020600101805480602002602001604051908101604052809291908181526020016000905b8282101561025a5783829060005260206000209060020201604051806040016040529081600082015481526020016001820160009054906101000a900460ff16600381111561023c57fe5b600381111561024757fe5b81525050815260200190600101906101f1565b505050509050919050565b60008060008481526020019081526020016000209050600081600001541415610292578281600001819055505b8060010160405180604001604052804281526020018460028111156102b357fe5b815250908060018154018082558091505090600182039060005260206000209060020201600090919290919091506000820151816000015560208201518160010160006101000a81548160ff0219169083600281111561030f57fe5b0217905550505050505050565b60008060016000848152602001908152602001600020600001541415610377576040517f08c379a000000000000000000000000000000000000000000000000000000000815260040161036e906109ec565b60405180910390fd5b6000600160008481526020019081526020016000206001018054905090506001600084815260200190815260200160002060010160018203815481106103b957fe5b906000526020600020906002020160010160009054906101000a900460ff16915050919050565b600060016000848152602001908152602001600020905060008160000154141561040e578281600001819055505b80600101604051806040016040528042815260200184600381111561042f57fe5b815250908060018154018082558091505090600182039060005260206000209060020201600090919290919091506000820151816000015560208201518160010160006101000a81548160ff0219169083600381111561048b57fe5b0217905550505050505050565b6000806000808481526020019081526020016000206000015414156104f2576040517f08c379a00000000000000000000000000000000000000000000000000000000081526004016104e9906109cc565b60405180910390fd5b6000806000848152602001908152602001600020600101805490509050600080848152602001908152602001600020600101600182038154811061053257fe5b906000526020600020906002020160010160009054906101000a900460ff16915050919050565b606060008060008481526020019081526020016000206000015414156105b4576040517f08c379a00000000000000000000000000000000000000000000000000000000081526004016105ab906109cc565b60405180910390fd5b600080838152602001908152602001600020600101805480602002602001604051908101604052809291908181526020016000905b828210156106525783829060005260206000209060020201604051806040016040529081600082015481526020016001820160009054906101000a900460ff16600281111561063457fe5b600281111561063f57fe5b81525050815260200190600101906105e9565b505050509050919050565b60008135905061066c81610afd565b92915050565b60008135905061068181610b0d565b92915050565b60008135905061069681610b1d565b92915050565b6000602082840312156106ae57600080fd5b60006106bc84828501610687565b91505092915050565b600080604083850312156106d857600080fd5b60006106e685828601610687565b92505060206106f78582860161065d565b9150509250929050565b6000806040838503121561071457600080fd5b600061072285828601610687565b925050602061073385828601610672565b9150509250929050565b600061074983836108e5565b60408301905092915050565b60006107618383610914565b60408301905092915050565b600061077882610a2c565b6107828185610a5c565b935061078d83610a0c565b8060005b838110156107be5781516107a5888261073d565b97506107b083610a42565b925050600181019050610791565b5085935050505092915050565b60006107d682610a37565b6107e08185610a6d565b93506107eb83610a1c565b8060005b8381101561081c5781516108038882610755565b975061080e83610a4f565b9250506001810190506107ef565b5085935050505092915050565b61083281610abf565b82525050565b61084181610abf565b82525050565b61085081610ad1565b82525050565b61085f81610ad1565b82525050565b6000610872601383610a7e565b91507f4e65656420646f6573206e6f74206578697374000000000000000000000000006000830152602082019050919050565b60006108b2601683610a7e565b91507f537570706f727420646f6573206e6f74206578697374000000000000000000006000830152602082019050919050565b6040820160008201516108fb6000850182610943565b50602082015161090e6020850182610829565b50505050565b60408201600082015161092a6000850182610943565b50602082015161093d6020850182610847565b50505050565b61094c81610ab5565b82525050565b6000602082019050818103600083015261096c818461076d565b905092915050565b6000602082019050818103600083015261098e81846107cb565b905092915050565b60006020820190506109ab6000830184610838565b92915050565b60006020820190506109c66000830184610856565b92915050565b600060208201905081810360008301526109e581610865565b9050919050565b60006020820190508181036000830152610a05816108a5565b9050919050565b6000819050602082019050919050565b6000819050602082019050919050565b600081519050919050565b600081519050919050565b6000602082019050919050565b6000602082019050919050565b600082825260208201905092915050565b600082825260208201905092915050565b600082825260208201905092915050565b6000819050610a9d82610ae3565b919050565b6000819050610ab082610af0565b919050565b6000819050919050565b6000610aca82610a8f565b9050919050565b6000610adc82610aa2565b9050919050565b60038110610aed57fe5b50565b60048110610afa57fe5b50565b60038110610b0a57600080fd5b50565b60048110610b1a57600080fd5b50565b610b2681610ab5565b8114610b3157600080fd5b5056fea365627a7a7231582053512510ec763ee040b562d7b9cf68e449d84bb5df5cd1deb5917deabf72dd4f6c6578706572696d656e74616cf564736f6c63430005100040",
  "source": "// SPDX-License-Identifier: MIT\npragma solidity >=0.4.22 <0.9.0;\npragma experimental ABIEncoderV2;\n\ncontract DepoZinciri {\n    enum NeedStatus { NotConfirmed, Confirmed, Delivered }\n    enum SupportStatus { Confirmed, OnTheWay, OnTheWarehouse, Delivered }\n\n    struct NeedStatusChange {\n        uint256 timestamp;\n        NeedStatus status;\n    }\n\n    struct SupportStatusChange {\n        uint256 timestamp;\n        SupportStatus status;\n    }\n\n    struct Need {\n        uint256 needId;\n        NeedStatusChange[] statusHistory;\n    }\n\n    struct Support {\n        uint256 supportId;\n        SupportStatusChange[] statusHistory;\n    }\n\n    mapping(uint256 => Need) private needsMapping;\n    mapping(uint256 => Support) private supportsMapping;\n\n    function updateNeedStatus(uint256 _needId, NeedStatus _status) public {\n        Need storage need = needsMapping[_needId];\n        if (need.needId == 0) {\n            need.needId = _needId;\n        }\n        need.statusHistory.push(NeedStatusChange(block.timestamp, _status));\n    }\n\n    function updateSupportStatus(uint256 _supportId, SupportStatus _status) public {\n        Support storage support = supportsMapping[_supportId];\n        if (support.supportId == 0) {\n            support.supportId = _supportId;\n        }\n        support.statusHistory.push(SupportStatusChange(block.timestamp, _status));\n    }\n\n    function getNeedStatus(uint256 _needId) public view returns (NeedStatus) {\n        require(needsMapping[_needId].needId != 0, \"Need does not exist\");\n        uint256 length = needsMapping[_needId].statusHistory.length;\n        return needsMapping[_needId].statusHistory[length - 1].status;\n    }\n\n    function getSupportStatus(uint256 _supportId) public view returns (SupportStatus) {\n        require(supportsMapping[_supportId].supportId != 0, \"Support does not exist\");\n        uint256 length = supportsMapping[_supportId].statusHistory.length;\n        return supportsMapping[_supportId].statusHistory[length - 1].status;\n    }\n\n    function getHistoricalNeedStatus(uint256 _needId) public view returns (NeedStatusChange[] memory) {\n        require(needsMapping[_needId].needId != 0, \"Need does not exist\");\n        return needsMapping[_needId].statusHistory;\n    }\n\n    function getHistoricalSupportStatus(uint256 _supportId) public view returns (SupportStatusChange[] memory) {\n        require(supportsMapping[_supportId].supportId != 0, \"Support does not exist\");\n        return supportsMapping[_supportId].statusHistory;\n    }\n}\n",
  "sourcePath": "/Users/emre/Desktop/DepoZinciri/contracts/DepoZinciri.sol",
  "compiler": {
    "name": "solc",
    "version": "0.5.16+commit.9c3226ce.Emscripten.clang"
  },
  "schemaVersion": "3.4.16",
  "updatedAt": "2024-06-09T01:40:05.978Z",
  "networkType": "ethereum",
  "devdoc": {
    "methods": {}
  },
  "userdoc": {
    "methods": {}
  }
}