{
  "contractName": "akys",
  "abi": [
    {
      "inputs": [],
      "payable": false,
      "stateMutability": "nonpayable",
      "type": "constructor"
    },
    {
      "constant": false,
      "inputs": [
        {
          "internalType": "address",
          "name": "_userAddress",
          "type": "address"
        },
        {
          "internalType": "string",
          "name": "_role",
          "type": "string"
        }
      ],
      "name": "setUser",
      "outputs": [],
      "payable": false,
      "stateMutability": "nonpayable",
      "type": "function"
    },
    {
      "constant": true,
      "inputs": [
        {
          "internalType": "address",
          "name": "_userAddress",
          "type": "address"
        }
      ],
      "name": "getUserAuth",
      "outputs": [
        {
          "internalType": "string",
          "name": "",
          "type": "string"
        }
      ],
      "payable": false,
      "stateMutability": "view",
      "type": "function"
    },
    {
      "constant": false,
      "inputs": [
        {
          "internalType": "string",
          "name": "_supportID",
          "type": "string"
        },
        {
          "internalType": "string",
          "name": "_personalDataHash",
          "type": "string"
        },
        {
          "internalType": "string",
          "name": "_supportType",
          "type": "string"
        },
        {
          "internalType": "uint256",
          "name": "_supportAmount",
          "type": "uint256"
        },
        {
          "internalType": "string",
          "name": "_sendType",
          "type": "string"
        }
      ],
      "name": "createSupport",
      "outputs": [],
      "payable": false,
      "stateMutability": "nonpayable",
      "type": "function"
    },
    {
      "constant": false,
      "inputs": [
        {
          "internalType": "string",
          "name": "_needID",
          "type": "string"
        },
        {
          "internalType": "string",
          "name": "_personalDataHash",
          "type": "string"
        },
        {
          "internalType": "string",
          "name": "_needType",
          "type": "string"
        },
        {
          "internalType": "uint256",
          "name": "_needAmount",
          "type": "uint256"
        }
      ],
      "name": "createNeed",
      "outputs": [],
      "payable": false,
      "stateMutability": "nonpayable",
      "type": "function"
    },
    {
      "constant": true,
      "inputs": [
        {
          "internalType": "string",
          "name": "_supportID",
          "type": "string"
        }
      ],
      "name": "showSupport",
      "outputs": [
        {
          "components": [
            {
              "internalType": "string",
              "name": "supportID",
              "type": "string"
            },
            {
              "internalType": "string",
              "name": "personalDataHash",
              "type": "string"
            },
            {
              "internalType": "string",
              "name": "supportType",
              "type": "string"
            },
            {
              "internalType": "uint256",
              "name": "supportAmount",
              "type": "uint256"
            },
            {
              "internalType": "string",
              "name": "sendType",
              "type": "string"
            }
          ],
          "internalType": "struct akys.SupportOffer",
          "name": "",
          "type": "tuple"
        }
      ],
      "payable": false,
      "stateMutability": "view",
      "type": "function"
    },
    {
      "constant": true,
      "inputs": [
        {
          "internalType": "string",
          "name": "_needID",
          "type": "string"
        }
      ],
      "name": "showNeed",
      "outputs": [
        {
          "components": [
            {
              "internalType": "string",
              "name": "needID",
              "type": "string"
            },
            {
              "internalType": "string",
              "name": "personalDataHash",
              "type": "string"
            },
            {
              "internalType": "string",
              "name": "needType",
              "type": "string"
            },
            {
              "internalType": "uint256",
              "name": "needAmount",
              "type": "uint256"
            }
          ],
          "internalType": "struct akys.NeedOffer",
          "name": "",
          "type": "tuple"
        }
      ],
      "payable": false,
      "stateMutability": "view",
      "type": "function"
    },
    {
      "constant": false,
      "inputs": [
        {
          "internalType": "string",
          "name": "_supportID",
          "type": "string"
        }
      ],
      "name": "approveSupport",
      "outputs": [],
      "payable": false,
      "stateMutability": "nonpayable",
      "type": "function"
    },
    {
      "constant": false,
      "inputs": [
        {
          "internalType": "string",
          "name": "_needID",
          "type": "string"
        }
      ],
      "name": "approveNeed",
      "outputs": [],
      "payable": false,
      "stateMutability": "nonpayable",
      "type": "function"
    },
    {
      "constant": false,
      "inputs": [
        {
          "internalType": "string",
          "name": "_supportID",
          "type": "string"
        }
      ],
      "name": "cancelSupport",
      "outputs": [],
      "payable": false,
      "stateMutability": "nonpayable",
      "type": "function"
    },
    {
      "constant": false,
      "inputs": [
        {
          "internalType": "string",
          "name": "_needID",
          "type": "string"
        }
      ],
      "name": "cancelNeed",
      "outputs": [],
      "payable": false,
      "stateMutability": "nonpayable",
      "type": "function"
    },
    {
      "constant": true,
      "inputs": [],
      "name": "showSupports",
      "outputs": [
        {
          "components": [
            {
              "internalType": "string",
              "name": "supportID",
              "type": "string"
            },
            {
              "internalType": "string",
              "name": "personalDataHash",
              "type": "string"
            },
            {
              "internalType": "string",
              "name": "supportType",
              "type": "string"
            },
            {
              "internalType": "uint256",
              "name": "supportAmount",
              "type": "uint256"
            },
            {
              "internalType": "string",
              "name": "sendType",
              "type": "string"
            }
          ],
          "internalType": "struct akys.SupportOffer[]",
          "name": "",
          "type": "tuple[]"
        }
      ],
      "payable": false,
      "stateMutability": "view",
      "type": "function"
    },
    {
      "constant": true,
      "inputs": [],
      "name": "showNeeds",
      "outputs": [
        {
          "components": [
            {
              "internalType": "string",
              "name": "needID",
              "type": "string"
            },
            {
              "internalType": "string",
              "name": "personalDataHash",
              "type": "string"
            },
            {
              "internalType": "string",
              "name": "needType",
              "type": "string"
            },
            {
              "internalType": "uint256",
              "name": "needAmount",
              "type": "uint256"
            }
          ],
          "internalType": "struct akys.NeedOffer[]",
          "name": "",
          "type": "tuple[]"
        }
      ],
      "payable": false,
      "stateMutability": "view",
      "type": "function"
    },
    {
      "constant": true,
      "inputs": [],
      "name": "showAllApprovedSupports",
      "outputs": [
        {
          "components": [
            {
              "internalType": "string",
              "name": "supportID",
              "type": "string"
            },
            {
              "internalType": "string",
              "name": "personalDataHash",
              "type": "string"
            },
            {
              "internalType": "string",
              "name": "supportType",
              "type": "string"
            },
            {
              "internalType": "uint256",
              "name": "supportAmount",
              "type": "uint256"
            },
            {
              "internalType": "string",
              "name": "sendType",
              "type": "string"
            }
          ],
          "internalType": "struct akys.SupportOffer[]",
          "name": "",
          "type": "tuple[]"
        }
      ],
      "payable": false,
      "stateMutability": "view",
      "type": "function"
    },
    {
      "constant": true,
      "inputs": [],
      "name": "showAllApprovedNeeds",
      "outputs": [
        {
          "components": [
            {
              "internalType": "string",
              "name": "needID",
              "type": "string"
            },
            {
              "internalType": "string",
              "name": "personalDataHash",
              "type": "string"
            },
            {
              "internalType": "string",
              "name": "needType",
              "type": "string"
            },
            {
              "internalType": "uint256",
              "name": "needAmount",
              "type": "uint256"
            }
          ],
          "internalType": "struct akys.NeedOffer[]",
          "name": "",
          "type": "tuple[]"
        }
      ],
      "payable": false,
      "stateMutability": "view",
      "type": "function"
    },
    {
      "constant": true,
      "inputs": [
        {
          "internalType": "string",
          "name": "_supportID",
          "type": "string"
        }
      ],
      "name": "showSupportStatus",
      "outputs": [
        {
          "internalType": "string",
          "name": "",
          "type": "string"
        }
      ],
      "payable": false,
      "stateMutability": "view",
      "type": "function"
    },
    {
      "constant": true,
      "inputs": [
        {
          "internalType": "string",
          "name": "_needID",
          "type": "string"
        }
      ],
      "name": "showNeedStatus",
      "outputs": [
        {
          "internalType": "string",
          "name": "",
          "type": "string"
        }
      ],
      "payable": false,
      "stateMutability": "view",
      "type": "function"
    },
    {
      "constant": true,
      "inputs": [],
      "name": "showCanceledSupports",
      "outputs": [
        {
          "components": [
            {
              "internalType": "string",
              "name": "supportID",
              "type": "string"
            },
            {
              "internalType": "string",
              "name": "personalDataHash",
              "type": "string"
            },
            {
              "internalType": "string",
              "name": "supportType",
              "type": "string"
            },
            {
              "internalType": "uint256",
              "name": "supportAmount",
              "type": "uint256"
            },
            {
              "internalType": "string",
              "name": "sendType",
              "type": "string"
            }
          ],
          "internalType": "struct akys.SupportOffer[]",
          "name": "",
          "type": "tuple[]"
        }
      ],
      "payable": false,
      "stateMutability": "view",
      "type": "function"
    },
    {
      "constant": true,
      "inputs": [],
      "name": "showCanceledNeeds",
      "outputs": [
        {
          "components": [
            {
              "internalType": "string",
              "name": "needID",
              "type": "string"
            },
            {
              "internalType": "string",
              "name": "personalDataHash",
              "type": "string"
            },
            {
              "internalType": "string",
              "name": "needType",
              "type": "string"
            },
            {
              "internalType": "uint256",
              "name": "needAmount",
              "type": "uint256"
            }
          ],
          "internalType": "struct akys.NeedOffer[]",
          "name": "",
          "type": "tuple[]"
        }
      ],
      "payable": false,
      "stateMutability": "view",
      "type": "function"
    },
    {
      "constant": true,
      "inputs": [],
      "name": "showTotalSupportCount",
      "outputs": [
        {
          "internalType": "uint256",
          "name": "count",
          "type": "uint256"
        }
      ],
      "payable": false,
      "stateMutability": "view",
      "type": "function"
    },
    {
      "constant": true,
      "inputs": [],
      "name": "showTotalNeedCount",
      "outputs": [
        {
          "internalType": "uint256",
          "name": "count",
          "type": "uint256"
        }
      ],
      "payable": false,
      "stateMutability": "view",
      "type": "function"
    }
  ],
  "bytecode": "0x60806040523480156200001157600080fd5b506040518060400160405280600581526020017f41444d494e000000000000000000000000000000000000000000000000000000815250600860003373ffffffffffffffffffffffffffffffffffffffff1673ffffffffffffffffffffffffffffffffffffffff16815260200190815260200160002090805190602001906200009c929190620000a3565b5062000152565b828054600181600116156101000203166002900490600052602060002090601f016020900481019282601f10620000e657805160ff191683800117855562000117565b8280016001018555821562000117579182015b8281111562000116578251825591602001919060010190620000f9565b5b5090506200012691906200012a565b5090565b6200014f91905b808211156200014b57600081600090555060010162000131565b5090565b90565b61505b80620001626000396000f3fe608060405234801561001057600080fd5b506004361061012c5760003560e01c80637e46c077116100ad578063c0b39dde11610071578063c0b39dde1461032f578063d0a2df4b1461034d578063d29a47081461036b578063d3e36dd014610389578063fa9e2f1e146103a55761012c565b80637e46c0771461028d57806396b64e3b146102a9578063a71465ea146102d9578063ab0bdd89146102f5578063ae25d094146103115761012c565b80633f1a51b8116100f45780633f1a51b8146101d557806342c81d63146101f157806371762fb8146102215780637a1344051461023f5780637abade351461025d5761012c565b806309d9a4db146101315780631d0ec5a91461014d5780632ca41457146101695780632e76c5f81461019957806330d28194146101b7575b600080fd5b61014b6004803603610146919081019061459f565b6103d5565b005b6101676004803603610162919081019061459f565b610991565b005b610183600480360361017e9190810190614522565b611100565b6040516101909190614d95565b60405180910390f35b6101a16112ae565b6040516101ae9190614d51565b60405180910390f35b6101bf6114fd565b6040516101cc9190614e1d565b60405180910390f35b6101ef60048036036101ea919081019061454b565b61150a565b005b61020b6004803603610206919081019061459f565b61162f565b6040516102189190614d95565b60405180910390f35b6102296117bc565b6040516102369190614d73565b60405180910390f35b610247611aad565b6040516102549190614d51565b60405180910390f35b6102776004803603610272919081019061459f565b611cfc565b6040516102849190614dfb565b60405180910390f35b6102a760048036036102a291908101906145e0565b611fc6565b005b6102c360048036036102be919081019061459f565b61241b565b6040516102d09190614dd9565b60405180910390f35b6102f360048036036102ee919081019061468b565b612643565b005b61030f600480360361030a919081019061459f565b612b13565b005b61031961332a565b6040516103269190614e1d565b60405180910390f35b610337613337565b6040516103449190614d73565b60405180910390f35b610355613628565b6040516103629190614d51565b60405180910390f35b610373613877565b6040516103809190614d73565b60405180910390f35b6103a3600480360361039e919081019061459f565b613b68565b005b6103bf60048036036103ba919081019061459f565b6140cc565b6040516103cc9190614d95565b60405180910390f35b6040518060400160405280600781526020017f434845434b4552000000000000000000000000000000000000000000000000008152508060405160200161041c9190614d95565b60405160208183030381529060405280519060200120600860003373ffffffffffffffffffffffffffffffffffffffff1673ffffffffffffffffffffffffffffffffffffffff1681526020019081526020016000206040516020016104819190614db7565b60405160208183030381529060405280519060200120146104a157600080fd5b60066009836040516104b39190614ce4565b90815260200160405180910390209080600181540180825580915050906001820390600052602060002090600502016000909192909190915060008201816000019080546001816001161561010002031660029004610513929190614259565b506001820181600101908054600181600116156101000203166002900461053b929190614259565b5060028201816002019080546001816001161561010002031660029004610563929190614259565b506003820154816003015560048201816004019080546001816001161561010002031660029004610595929190614259565b505050506040516020016105a890614d12565b60405160208183030381529060405280519060200120600b836040516105ce9190614ce4565b90815260200160405180910390206040516020016105ec9190614cfb565b6040516020818303038152906040528051906020012014156107605760008090505b600280549050816fffffffffffffffffffffffffffffffff16101561075a5760098360405161063d9190614ce4565b908152602001604051809103902060000160405160200161065e9190614db7565b604051602081830303815290604052805190602001206002826fffffffffffffffffffffffffffffffff168154811061069357fe5b90600052602060002090600502016000016040516020016106b49190614db7565b60405160208183030381529060405280519060200120141561074d576002816fffffffffffffffffffffffffffffffff16815481106106ef57fe5b90600052602060002090600502016000808201600061070e91906142e0565b60018201600061071e91906142e0565b60028201600061072e91906142e0565b600382016000905560048201600061074691906142e0565b505061075a565b808060010191505061060e565b50610924565b60405160200161076f90614d3c565b60405160208183030381529060405280519060200120600b836040516107959190614ce4565b90815260200160405180910390206040516020016107b39190614cfb565b6040516020818303038152906040528051906020012014156109235760008090505b600480549050816fffffffffffffffffffffffffffffffff161015610921576009836040516108049190614ce4565b90815260200160405180910390206000016040516020016108259190614db7565b604051602081830303815290604052805190602001206004826fffffffffffffffffffffffffffffffff168154811061085a57fe5b906000526020600020906005020160000160405160200161087b9190614db7565b604051602081830303815290604052805190602001201415610914576004816fffffffffffffffffffffffffffffffff16815481106108b657fe5b9060005260206000209060050201600080820160006108d591906142e0565b6001820160006108e591906142e0565b6002820160006108f591906142e0565b600382016000905560048201600061090d91906142e0565b5050610921565b80806001019150506107d5565b505b5b6009826040516109349190614ce4565b90815260200160405180910390206000808201600061095391906142e0565b60018201600061096391906142e0565b60028201600061097391906142e0565b600382016000905560048201600061098b91906142e0565b50505050565b6040518060400160405280600781526020017f434845434b455200000000000000000000000000000000000000000000000000815250806040516020016109d89190614d95565b60405160208183030381529060405280519060200120600860003373ffffffffffffffffffffffffffffffffffffffff1673ffffffffffffffffffffffffffffffffffffffff168152602001908152602001600020604051602001610a3d9190614db7565b6040516020818303038152906040528051906020012014610a5d57600080fd5b6040518060400160405280600881526020017f415050524f564544000000000000000000000000000000000000000000000000815250600c83604051610aa39190614ce4565b90815260200160405180910390209080519060200190610ac4929190614328565b5060006005805490501415610cb5576005600a83604051610ae59190614ce4565b90815260200160405180910390209080600181540180825580915050906001820390600052602060002090600402016000909192909190915060008201816000019080546001816001161561010002031660029004610b45929190614259565b5060018201816001019080546001816001161561010002031660029004610b6d929190614259565b5060028201816002019080546001816001161561010002031660029004610b95929190614259565b506003820154816003015550505060008090505b600380549050811015610caf57600a83604051610bc69190614ce4565b9081526020016040518091039020600001604051602001610be79190614cfb565b6040516020818303038152906040528051906020012060038281548110610c0a57fe5b9060005260206000209060040201600001604051602001610c2b9190614cfb565b604051602081830303815290604052805190602001201415610ca25760038181548110610c5457fe5b906000526020600020906004020160008082016000610c7391906142e0565b600182016000610c8391906142e0565b600282016000610c9391906142e0565b60038201600090555050610caf565b8080600101915050610ba9565b506110fc565b600080905060008090505b600580549050811015610f1657604051602001610cdc90614d27565b6040516020818303038152906040528051906020012060058281548110610cff57fe5b9060005260206000209060040201600001604051602001610d209190614cfb565b604051602081830303815290604052805190602001201415610f095760008090505b600380549050811015610f0757600a85604051610d5f9190614ce4565b9081526020016040518091039020600001604051602001610d809190614cfb565b6040516020818303038152906040528051906020012060038281548110610da357fe5b9060005260206000209060040201600001604051602001610dc49190614cfb565b604051602081830303815290604052805190602001201415610efa5760038181548110610ded57fe5b906000526020600020906004020160058381548110610e0857fe5b906000526020600020906004020160008201816000019080546001816001161561010002031660029004610e3d929190614259565b5060018201816001019080546001816001161561010002031660029004610e65929190614259565b5060028201816002019080546001816001161561010002031660029004610e8d929190614259565b506003820154816003015590505060038181548110610ea857fe5b906000526020600020906004020160008082016000610ec791906142e0565b600182016000610ed791906142e0565b600282016000610ee791906142e0565b6003820160009055505060019250610f07565b8080600101915050610d42565b505b8080600101915050610cc0565b50806110fa576005600a84604051610f2e9190614ce4565b90815260200160405180910390209080600181540180825580915050906001820390600052602060002090600402016000909192909190915060008201816000019080546001816001161561010002031660029004610f8e929190614259565b5060018201816001019080546001816001161561010002031660029004610fb6929190614259565b5060028201816002019080546001816001161561010002031660029004610fde929190614259565b506003820154816003015550505060008090505b6003805490508110156110f857600a8460405161100f9190614ce4565b90815260200160405180910390206000016040516020016110309190614cfb565b604051602081830303815290604052805190602001206003828154811061105357fe5b90600052602060002090600402016000016040516020016110749190614cfb565b6040516020818303038152906040528051906020012014156110eb576003818154811061109d57fe5b9060005260206000209060040201600080820160006110bc91906142e0565b6001820160006110cc91906142e0565b6002820160006110dc91906142e0565b600382016000905550506110f8565b8080600101915050610ff2565b505b505b5050565b60606040518060400160405280600581526020017f41444d494e000000000000000000000000000000000000000000000000000000815250806040516020016111499190614d95565b60405160208183030381529060405280519060200120600860003373ffffffffffffffffffffffffffffffffffffffff1673ffffffffffffffffffffffffffffffffffffffff1681526020019081526020016000206040516020016111ae9190614db7565b60405160208183030381529060405280519060200120146111ce57600080fd5b600860008473ffffffffffffffffffffffffffffffffffffffff1673ffffffffffffffffffffffffffffffffffffffff1681526020019081526020016000208054600181600116156101000203166002900480601f0160208091040260200160405190810160405280929190818152602001828054600181600116156101000203166002900480156112a15780601f10611276576101008083540402835291602001916112a1565b820191906000526020600020905b81548152906001019060200180831161128457829003601f168201915b5050505050915050919050565b60606003805480602002602001604051908101604052809291908181526020016000905b828210156114f45783829060005260206000209060040201604051806080016040529081600082018054600181600116156101000203166002900480601f01602080910402602001604051908101604052809291908181526020018280546001816001161561010002031660029004801561138e5780601f106113635761010080835404028352916020019161138e565b820191906000526020600020905b81548152906001019060200180831161137157829003601f168201915b50505050508152602001600182018054600181600116156101000203166002900480601f0160208091040260200160405190810160405280929190818152602001828054600181600116156101000203166002900480156114305780601f1061140557610100808354040283529160200191611430565b820191906000526020600020905b81548152906001019060200180831161141357829003601f168201915b50505050508152602001600282018054600181600116156101000203166002900480601f0160208091040260200160405190810160405280929190818152602001828054600181600116156101000203166002900480156114d25780601f106114a7576101008083540402835291602001916114d2565b820191906000526020600020905b8154815290600101906020018083116114b557829003601f168201915b50505050508152602001600382015481525050815260200190600101906112d2565b50505050905090565b6000600380549050905090565b6040518060400160405280600581526020017f41444d494e000000000000000000000000000000000000000000000000000000815250806040516020016115519190614d95565b60405160208183030381529060405280519060200120600860003373ffffffffffffffffffffffffffffffffffffffff1673ffffffffffffffffffffffffffffffffffffffff1681526020019081526020016000206040516020016115b69190614db7565b60405160208183030381529060405280519060200120146115d657600080fd5b81600860008573ffffffffffffffffffffffffffffffffffffffff1673ffffffffffffffffffffffffffffffffffffffff1681526020019081526020016000209080519060200190611629929190614328565b50505050565b60606040518060400160405280600781526020017f434845434b455200000000000000000000000000000000000000000000000000815250806040516020016116789190614d95565b60405160208183030381529060405280519060200120600860003373ffffffffffffffffffffffffffffffffffffffff1673ffffffffffffffffffffffffffffffffffffffff1681526020019081526020016000206040516020016116dd9190614db7565b60405160208183030381529060405280519060200120146116fd57600080fd5b600b8360405161170d9190614ce4565b90815260200160405180910390208054600181600116156101000203166002900480601f0160208091040260200160405190810160405280929190818152602001828054600181600116156101000203166002900480156117af5780601f10611784576101008083540402835291602001916117af565b820191906000526020600020905b81548152906001019060200180831161179257829003601f168201915b5050505050915050919050565b60606006805480602002602001604051908101604052809291908181526020016000905b82821015611aa457838290600052602060002090600502016040518060a0016040529081600082018054600181600116156101000203166002900480601f01602080910402602001604051908101604052809291908181526020018280546001816001161561010002031660029004801561189c5780601f106118715761010080835404028352916020019161189c565b820191906000526020600020905b81548152906001019060200180831161187f57829003601f168201915b50505050508152602001600182018054600181600116156101000203166002900480601f01602080910402602001604051908101604052809291908181526020018280546001816001161561010002031660029004801561193e5780601f106119135761010080835404028352916020019161193e565b820191906000526020600020905b81548152906001019060200180831161192157829003601f168201915b50505050508152602001600282018054600181600116156101000203166002900480601f0160208091040260200160405190810160405280929190818152602001828054600181600116156101000203166002900480156119e05780601f106119b5576101008083540402835291602001916119e0565b820191906000526020600020905b8154815290600101906020018083116119c357829003601f168201915b5050505050815260200160038201548152602001600482018054600181600116156101000203166002900480601f016020809104026020016040519081016040528092919081815260200182805460018160011615610100020316600290048015611a8c5780601f10611a6157610100808354040283529160200191611a8c565b820191906000526020600020905b815481529060010190602001808311611a6f57829003601f168201915b505050505081525050815260200190600101906117e0565b50505050905090565b60606007805480602002602001604051908101604052809291908181526020016000905b82821015611cf35783829060005260206000209060040201604051806080016040529081600082018054600181600116156101000203166002900480601f016020809104026020016040519081016040528092919081815260200182805460018160011615610100020316600290048015611b8d5780601f10611b6257610100808354040283529160200191611b8d565b820191906000526020600020905b815481529060010190602001808311611b7057829003601f168201915b50505050508152602001600182018054600181600116156101000203166002900480601f016020809104026020016040519081016040528092919081815260200182805460018160011615610100020316600290048015611c2f5780601f10611c0457610100808354040283529160200191611c2f565b820191906000526020600020905b815481529060010190602001808311611c1257829003601f168201915b50505050508152602001600282018054600181600116156101000203166002900480601f016020809104026020016040519081016040528092919081815260200182805460018160011615610100020316600290048015611cd15780601f10611ca657610100808354040283529160200191611cd1565b820191906000526020600020905b815481529060010190602001808311611cb457829003601f168201915b5050505050815260200160038201548152505081526020019060010190611ad1565b50505050905090565b611d046143a8565b600982604051611d149190614ce4565b90815260200160405180910390206040518060a0016040529081600082018054600181600116156101000203166002900480601f016020809104026020016040519081016040528092919081815260200182805460018160011615610100020316600290048015611dc65780601f10611d9b57610100808354040283529160200191611dc6565b820191906000526020600020905b815481529060010190602001808311611da957829003601f168201915b50505050508152602001600182018054600181600116156101000203166002900480601f016020809104026020016040519081016040528092919081815260200182805460018160011615610100020316600290048015611e685780601f10611e3d57610100808354040283529160200191611e68565b820191906000526020600020905b815481529060010190602001808311611e4b57829003601f168201915b50505050508152602001600282018054600181600116156101000203166002900480601f016020809104026020016040519081016040528092919081815260200182805460018160011615610100020316600290048015611f0a5780601f10611edf57610100808354040283529160200191611f0a565b820191906000526020600020905b815481529060010190602001808311611eed57829003601f168201915b5050505050815260200160038201548152602001600482018054600181600116156101000203166002900480601f016020809104026020016040519081016040528092919081815260200182805460018160011615610100020316600290048015611fb65780601f10611f8b57610100808354040283529160200191611fb6565b820191906000526020600020905b815481529060010190602001808311611f9957829003601f168201915b5050505050815250509050919050565b6040518060400160405280600781526020017f43524541544552000000000000000000000000000000000000000000000000008152508060405160200161200d9190614d95565b60405160208183030381529060405280519060200120600860003373ffffffffffffffffffffffffffffffffffffffff1673ffffffffffffffffffffffffffffffffffffffff1681526020019081526020016000206040516020016120729190614db7565b604051602081830303815290604052805190602001201461209257600080fd5b61209a6143d7565b604051806080016040528087815260200186815260200185815260200184815250905060006003805490501415612162576003819080600181540180825580915050906001820390600052602060002090600402016000909192909190915060008201518160000190805190602001906121159291906143ff565b5060208201518160010190805190602001906121329291906143ff565b50604082015181600201908051906020019061214f9291906143ff565b5060608201518160030155505050612328565b6000633b9aca00905060008090505b6003805490508110156122025760405160200161218d90614d27565b60405160208183030381529060405280519060200120600382815481106121b057fe5b90600052602060002090600402016000016040516020016121d19190614cfb565b6040516020818303038152906040528051906020012014156121f557809150612202565b8080600101915050612171565b50633b9aca00811461229357816003828154811061221c57fe5b906000526020600020906004020160008201518160000190805190602001906122469291906143ff565b5060208201518160010190805190602001906122639291906143ff565b5060408201518160020190805190602001906122809291906143ff565b5060608201518160030155905050612326565b6003829080600181540180825580915050906001820390600052602060002090600402016000909192909190915060008201518160000190805190602001906122dd9291906143ff565b5060208201518160010190805190602001906122fa9291906143ff565b5060408201518160020190805190602001906123179291906143ff565b50606082015181600301555050505b505b80600a876040516123399190614ce4565b908152602001604051809103902060008201518160000190805190602001906123639291906143ff565b5060208201518160010190805190602001906123809291906143ff565b50604082015181600201908051906020019061239d9291906143ff565b50606082015181600301559050506040518060400160405280600781526020017f57414954494e4700000000000000000000000000000000000000000000000000815250600c876040516123f19190614ce4565b90815260200160405180910390209080519060200190612412929190614328565b50505050505050565b6124236143d7565b600a826040516124339190614ce4565b9081526020016040518091039020604051806080016040529081600082018054600181600116156101000203166002900480601f0160208091040260200160405190810160405280929190818152602001828054600181600116156101000203166002900480156124e55780601f106124ba576101008083540402835291602001916124e5565b820191906000526020600020905b8154815290600101906020018083116124c857829003601f168201915b50505050508152602001600182018054600181600116156101000203166002900480601f0160208091040260200160405190810160405280929190818152602001828054600181600116156101000203166002900480156125875780601f1061255c57610100808354040283529160200191612587565b820191906000526020600020905b81548152906001019060200180831161256a57829003601f168201915b50505050508152602001600282018054600181600116156101000203166002900480601f0160208091040260200160405190810160405280929190818152602001828054600181600116156101000203166002900480156126295780601f106125fe57610100808354040283529160200191612629565b820191906000526020600020905b81548152906001019060200180831161260c57829003601f168201915b505050505081526020016003820154815250509050919050565b6040518060400160405280600781526020017f43524541544552000000000000000000000000000000000000000000000000008152508060405160200161268a9190614d95565b60405160208183030381529060405280519060200120600860003373ffffffffffffffffffffffffffffffffffffffff1673ffffffffffffffffffffffffffffffffffffffff1681526020019081526020016000206040516020016126ef9190614db7565b604051602081830303815290604052805190602001201461270f57600080fd5b6127176143a8565b6040518060a0016040528088815260200187815260200186815260200185815260200184815250905060006002805490501415612802576002819080600181540180825580915050906001820390600052602060002090600502016000909192909190915060008201518160000190805190602001906127989291906143ff565b5060208201518160010190805190602001906127b59291906143ff565b5060408201518160020190805190602001906127d29291906143ff565b506060820151816003015560808201518160040190805190602001906127f99291906143ff565b50505050612a02565b6000633b9aca00905060008090505b6002805490508110156128a25760405160200161282d90614d27565b604051602081830303815290604052805190602001206002828154811061285057fe5b90600052602060002090600502016000016040516020016128719190614cfb565b604051602081830303815290604052805190602001201415612895578091506128a2565b8080600101915050612811565b50633b9aca0081146129505781600282815481106128bc57fe5b906000526020600020906005020160008201518160000190805190602001906128e69291906143ff565b5060208201518160010190805190602001906129039291906143ff565b5060408201518160020190805190602001906129209291906143ff565b506060820151816003015560808201518160040190805190602001906129479291906143ff565b50905050612a00565b60028290806001815401808255809150509060018203906000526020600020906005020160009091929091909150600082015181600001908051906020019061299a9291906143ff565b5060208201518160010190805190602001906129b79291906143ff565b5060408201518160020190805190602001906129d49291906143ff565b506060820151816003015560808201518160040190805190602001906129fb9291906143ff565b505050505b505b80600988604051612a139190614ce4565b90815260200160405180910390206000820151816000019080519060200190612a3d9291906143ff565b506020820151816001019080519060200190612a5a9291906143ff565b506040820151816002019080519060200190612a779291906143ff565b50606082015181600301556080820151816004019080519060200190612a9e9291906143ff565b509050506040518060400160405280600781526020017f57414954494e4700000000000000000000000000000000000000000000000000815250600b88604051612ae89190614ce4565b90815260200160405180910390209080519060200190612b09929190614328565b5050505050505050565b6040518060400160405280600781526020017f434845434b45520000000000000000000000000000000000000000000000000081525080604051602001612b5a9190614d95565b60405160208183030381529060405280519060200120600860003373ffffffffffffffffffffffffffffffffffffffff1673ffffffffffffffffffffffffffffffffffffffff168152602001908152602001600020604051602001612bbf9190614db7565b6040516020818303038152906040528051906020012014612bdf57600080fd5b6040518060400160405280600881526020017f415050524f564544000000000000000000000000000000000000000000000000815250600b83604051612c259190614ce4565b90815260200160405180910390209080519060200190612c46929190614328565b5060006004805490501415612e6f576004600983604051612c679190614ce4565b90815260200160405180910390209080600181540180825580915050906001820390600052602060002090600502016000909192909190915060008201816000019080546001816001161561010002031660029004612cc7929190614259565b5060018201816001019080546001816001161561010002031660029004612cef929190614259565b5060028201816002019080546001816001161561010002031660029004612d17929190614259565b506003820154816003015560048201816004019080546001816001161561010002031660029004612d49929190614259565b5050505060008090505b600280549050811015612e6957600983604051612d709190614ce4565b9081526020016040518091039020600001604051602001612d919190614cfb565b6040516020818303038152906040528051906020012060028281548110612db457fe5b9060005260206000209060050201600001604051602001612dd59190614cfb565b604051602081830303815290604052805190602001201415612e5c5760028181548110612dfe57fe5b906000526020600020906005020160008082016000612e1d91906142e0565b600182016000612e2d91906142e0565b600282016000612e3d91906142e0565b6003820160009055600482016000612e5591906142e0565b5050612e69565b8080600101915050612d53565b50613326565b600080905060008090505b60048054905081101561310857604051602001612e9690614d27565b6040516020818303038152906040528051906020012060048281548110612eb957fe5b9060005260206000209060050201600001604051602001612eda9190614cfb565b6040516020818303038152906040528051906020012014156130fb5760008090505b6002805490508110156130f957600985604051612f199190614ce4565b9081526020016040518091039020600001604051602001612f3a9190614cfb565b6040516020818303038152906040528051906020012060028281548110612f5d57fe5b9060005260206000209060050201600001604051602001612f7e9190614cfb565b6040516020818303038152906040528051906020012014156130ec5760028181548110612fa757fe5b906000526020600020906005020160048381548110612fc257fe5b906000526020600020906005020160008201816000019080546001816001161561010002031660029004612ff7929190614259565b506001820181600101908054600181600116156101000203166002900461301f929190614259565b5060028201816002019080546001816001161561010002031660029004613047929190614259565b506003820154816003015560048201816004019080546001816001161561010002031660029004613079929190614259565b509050506002818154811061308a57fe5b9060005260206000209060050201600080820160006130a991906142e0565b6001820160006130b991906142e0565b6002820160006130c991906142e0565b60038201600090556004820160006130e191906142e0565b5050600192506130f9565b8080600101915050612efc565b505b8080600101915050612e7a565b50806133245760046009846040516131209190614ce4565b90815260200160405180910390209080600181540180825580915050906001820390600052602060002090600502016000909192909190915060008201816000019080546001816001161561010002031660029004613180929190614259565b50600182018160010190805460018160011615610100020316600290046131a8929190614259565b50600282018160020190805460018160011615610100020316600290046131d0929190614259565b506003820154816003015560048201816004019080546001816001161561010002031660029004613202929190614259565b5050505060008090505b600280549050811015613322576009846040516132299190614ce4565b908152602001604051809103902060000160405160200161324a9190614cfb565b604051602081830303815290604052805190602001206002828154811061326d57fe5b906000526020600020906005020160000160405160200161328e9190614cfb565b60405160208183030381529060405280519060200120141561331557600281815481106132b757fe5b9060005260206000209060050201600080820160006132d691906142e0565b6001820160006132e691906142e0565b6002820160006132f691906142e0565b600382016000905560048201600061330e91906142e0565b5050613322565b808060010191505061320c565b505b505b5050565b6000600280549050905090565b60606002805480602002602001604051908101604052809291908181526020016000905b8282101561361f57838290600052602060002090600502016040518060a0016040529081600082018054600181600116156101000203166002900480601f0160208091040260200160405190810160405280929190818152602001828054600181600116156101000203166002900480156134175780601f106133ec57610100808354040283529160200191613417565b820191906000526020600020905b8154815290600101906020018083116133fa57829003601f168201915b50505050508152602001600182018054600181600116156101000203166002900480601f0160208091040260200160405190810160405280929190818152602001828054600181600116156101000203166002900480156134b95780601f1061348e576101008083540402835291602001916134b9565b820191906000526020600020905b81548152906001019060200180831161349c57829003601f168201915b50505050508152602001600282018054600181600116156101000203166002900480601f01602080910402602001604051908101604052809291908181526020018280546001816001161561010002031660029004801561355b5780601f106135305761010080835404028352916020019161355b565b820191906000526020600020905b81548152906001019060200180831161353e57829003601f168201915b5050505050815260200160038201548152602001600482018054600181600116156101000203166002900480601f0160208091040260200160405190810160405280929190818152602001828054600181600116156101000203166002900480156136075780601f106135dc57610100808354040283529160200191613607565b820191906000526020600020905b8154815290600101906020018083116135ea57829003601f168201915b5050505050815250508152602001906001019061335b565b50505050905090565b60606005805480602002602001604051908101604052809291908181526020016000905b8282101561386e5783829060005260206000209060040201604051806080016040529081600082018054600181600116156101000203166002900480601f0160208091040260200160405190810160405280929190818152602001828054600181600116156101000203166002900480156137085780601f106136dd57610100808354040283529160200191613708565b820191906000526020600020905b8154815290600101906020018083116136eb57829003601f168201915b50505050508152602001600182018054600181600116156101000203166002900480601f0160208091040260200160405190810160405280929190818152602001828054600181600116156101000203166002900480156137aa5780601f1061377f576101008083540402835291602001916137aa565b820191906000526020600020905b81548152906001019060200180831161378d57829003601f168201915b50505050508152602001600282018054600181600116156101000203166002900480601f01602080910402602001604051908101604052809291908181526020018280546001816001161561010002031660029004801561384c5780601f106138215761010080835404028352916020019161384c565b820191906000526020600020905b81548152906001019060200180831161382f57829003601f168201915b505050505081526020016003820154815250508152602001906001019061364c565b50505050905090565b60606004805480602002602001604051908101604052809291908181526020016000905b82821015613b5f57838290600052602060002090600502016040518060a0016040529081600082018054600181600116156101000203166002900480601f0160208091040260200160405190810160405280929190818152602001828054600181600116156101000203166002900480156139575780601f1061392c57610100808354040283529160200191613957565b820191906000526020600020905b81548152906001019060200180831161393a57829003601f168201915b50505050508152602001600182018054600181600116156101000203166002900480601f0160208091040260200160405190810160405280929190818152602001828054600181600116156101000203166002900480156139f95780601f106139ce576101008083540402835291602001916139f9565b820191906000526020600020905b8154815290600101906020018083116139dc57829003601f168201915b50505050508152602001600282018054600181600116156101000203166002900480601f016020809104026020016040519081016040528092919081815260200182805460018160011615610100020316600290048015613a9b5780601f10613a7057610100808354040283529160200191613a9b565b820191906000526020600020905b815481529060010190602001808311613a7e57829003601f168201915b5050505050815260200160038201548152602001600482018054600181600116156101000203166002900480601f016020809104026020016040519081016040528092919081815260200182805460018160011615610100020316600290048015613b475780601f10613b1c57610100808354040283529160200191613b47565b820191906000526020600020905b815481529060010190602001808311613b2a57829003601f168201915b5050505050815250508152602001906001019061389b565b50505050905090565b6040518060400160405280600781526020017f434845434b45520000000000000000000000000000000000000000000000000081525080604051602001613baf9190614d95565b60405160208183030381529060405280519060200120600860003373ffffffffffffffffffffffffffffffffffffffff1673ffffffffffffffffffffffffffffffffffffffff168152602001908152602001600020604051602001613c149190614db7565b6040516020818303038152906040528051906020012014613c3457600080fd5b6007600a83604051613c469190614ce4565b90815260200160405180910390209080600181540180825580915050906001820390600052602060002090600402016000909192909190915060008201816000019080546001816001161561010002031660029004613ca6929190614259565b5060018201816001019080546001816001161561010002031660029004613cce929190614259565b5060028201816002019080546001816001161561010002031660029004613cf6929190614259565b5060038201548160030155505050604051602001613d1390614d12565b60405160208183030381529060405280519060200120600c83604051613d399190614ce4565b9081526020016040518091039020604051602001613d579190614cfb565b604051602081830303815290604052805190602001201415613ebb5760008090505b600380549050816fffffffffffffffffffffffffffffffff161015613eb557600a83604051613da89190614ce4565b9081526020016040518091039020600001604051602001613dc99190614db7565b604051602081830303815290604052805190602001206003826fffffffffffffffffffffffffffffffff1681548110613dfe57fe5b9060005260206000209060040201600001604051602001613e1f9190614db7565b604051602081830303815290604052805190602001201415613ea8576003816fffffffffffffffffffffffffffffffff1681548110613e5a57fe5b906000526020600020906004020160008082016000613e7991906142e0565b600182016000613e8991906142e0565b600282016000613e9991906142e0565b60038201600090555050613eb5565b8080600101915050613d79565b5061406f565b604051602001613eca90614d3c565b60405160208183030381529060405280519060200120600c83604051613ef09190614ce4565b9081526020016040518091039020604051602001613f0e9190614cfb565b60405160208183030381529060405280519060200120141561406e5760008090505b600580549050816fffffffffffffffffffffffffffffffff16101561406c57600a83604051613f5f9190614ce4565b9081526020016040518091039020600001604051602001613f809190614db7565b604051602081830303815290604052805190602001206005826fffffffffffffffffffffffffffffffff1681548110613fb557fe5b9060005260206000209060040201600001604051602001613fd69190614db7565b60405160208183030381529060405280519060200120141561405f576005816fffffffffffffffffffffffffffffffff168154811061401157fe5b90600052602060002090600402016000808201600061403091906142e0565b60018201600061404091906142e0565b60028201600061405091906142e0565b6003820160009055505061406c565b8080600101915050613f30565b505b5b600a8260405161407f9190614ce4565b90815260200160405180910390206000808201600061409e91906142e0565b6001820160006140ae91906142e0565b6002820160006140be91906142e0565b600382016000905550505050565b60606040518060400160405280600781526020017f434845434b455200000000000000000000000000000000000000000000000000815250806040516020016141159190614d95565b60405160208183030381529060405280519060200120600860003373ffffffffffffffffffffffffffffffffffffffff1673ffffffffffffffffffffffffffffffffffffffff16815260200190815260200160002060405160200161417a9190614db7565b604051602081830303815290604052805190602001201461419a57600080fd5b600c836040516141aa9190614ce4565b90815260200160405180910390208054600181600116156101000203166002900480601f01602080910402602001604051908101604052809291908181526020018280546001816001161561010002031660029004801561424c5780601f106142215761010080835404028352916020019161424c565b820191906000526020600020905b81548152906001019060200180831161422f57829003601f168201915b5050505050915050919050565b828054600181600116156101000203166002900490600052602060002090601f016020900481019282601f1061429257805485556142cf565b828001600101855582156142cf57600052602060002091601f016020900482015b828111156142ce5782548255916001019190600101906142b3565b5b5090506142dc919061447f565b5090565b50805460018160011615610100020316600290046000825580601f106143065750614325565b601f016020900490600052602060002090810190614324919061447f565b5b50565b828054600181600116156101000203166002900490600052602060002090601f016020900481019282601f1061436957805160ff1916838001178555614397565b82800160010185558215614397579182015b8281111561439657825182559160200191906001019061437b565b5b5090506143a4919061447f565b5090565b6040518060a0016040528060608152602001606081526020016060815260200160008152602001606081525090565b6040518060800160405280606081526020016060815260200160608152602001600081525090565b828054600181600116156101000203166002900490600052602060002090601f016020900481019282601f1061444057805160ff191683800117855561446e565b8280016001018555821561446e579182015b8281111561446d578251825591602001919060010190614452565b5b50905061447b919061447f565b5090565b6144a191905b8082111561449d576000816000905550600101614485565b5090565b90565b6000813590506144b381614fea565b92915050565b600082601f8301126144ca57600080fd5b81356144dd6144d882614e65565b614e38565b915080825260208301602083018583830111156144f957600080fd5b614504838284614f97565b50505092915050565b60008135905061451c81615001565b92915050565b60006020828403121561453457600080fd5b6000614542848285016144a4565b91505092915050565b6000806040838503121561455e57600080fd5b600061456c858286016144a4565b925050602083013567ffffffffffffffff81111561458957600080fd5b614595858286016144b9565b9150509250929050565b6000602082840312156145b157600080fd5b600082013567ffffffffffffffff8111156145cb57600080fd5b6145d7848285016144b9565b91505092915050565b600080600080608085870312156145f657600080fd5b600085013567ffffffffffffffff81111561461057600080fd5b61461c878288016144b9565b945050602085013567ffffffffffffffff81111561463957600080fd5b614645878288016144b9565b935050604085013567ffffffffffffffff81111561466257600080fd5b61466e878288016144b9565b925050606061467f8782880161450d565b91505092959194509250565b600080600080600060a086880312156146a357600080fd5b600086013567ffffffffffffffff8111156146bd57600080fd5b6146c9888289016144b9565b955050602086013567ffffffffffffffff8111156146e657600080fd5b6146f2888289016144b9565b945050604086013567ffffffffffffffff81111561470f57600080fd5b61471b888289016144b9565b935050606061472c8882890161450d565b925050608086013567ffffffffffffffff81111561474957600080fd5b614755888289016144b9565b9150509295509295909350565b600061476e8383614b3f565b905092915050565b60006147828383614c3b565b905092915050565b600061479582614ec6565b61479f8185614f0c565b9350836020820285016147b185614e91565b8060005b858110156147ed57848403895281516147ce8582614762565b94506147d983614ef2565b925060208a019950506001810190506147b5565b50829750879550505050505092915050565b600061480a82614ed1565b6148148185614f1d565b93508360208202850161482685614ea1565b8060005b8581101561486257848403895281516148438582614776565b945061484e83614eff565b925060208a0199505060018101905061482a565b50829750879550505050505092915050565b600061487f82614ee7565b6148898185614f3f565b9350614899818560208601614fa6565b6148a281614fd9565b840191505092915050565b60006148b882614ee7565b6148c28185614f50565b93506148d2818560208601614fa6565b80840191505092915050565b60006148e982614edc565b6148f38185614f2e565b9350614903818560208601614fa6565b61490c81614fd9565b840191505092915050565b600081546001811660008114614934576001811461495a5761499e565b607f60028304166149458187614f3f565b955060ff19831686526020860193505061499e565b600282046149688187614f3f565b955061497385614eb1565b60005b8281101561499557815481890152600182019150602081019050614976565b80880195505050505b505092915050565b6000815460018116600081146149c357600181146149e857614a2c565b607f60028304166149d48187614f50565b955060ff1983168652808601935050614a2c565b600282046149f68187614f50565b9550614a0185614eb1565b60005b82811015614a2357815481890152600182019150602081019050614a04565b82880195505050505b505092915050565b6000614a41600783614f50565b91507f57414954494e47000000000000000000000000000000000000000000000000006000830152600782019050919050565b6000614a81600083614f50565b9150600082019050919050565b6000614a9b600883614f50565b91507f415050524f5645440000000000000000000000000000000000000000000000006000830152600882019050919050565b60006080830160008301518482036000860152614aeb82826148de565b91505060208301518482036020860152614b0582826148de565b91505060408301518482036040860152614b1f82826148de565b9150506060830151614b346060860182614cc6565b508091505092915050565b60006080830160008301518482036000860152614b5c82826148de565b91505060208301518482036020860152614b7682826148de565b91505060408301518482036040860152614b9082826148de565b9150506060830151614ba56060860182614cc6565b508091505092915050565b600060a0830160008301518482036000860152614bcd82826148de565b91505060208301518482036020860152614be782826148de565b91505060408301518482036040860152614c0182826148de565b9150506060830151614c166060860182614cc6565b5060808301518482036080860152614c2e82826148de565b9150508091505092915050565b600060a0830160008301518482036000860152614c5882826148de565b91505060208301518482036020860152614c7282826148de565b91505060408301518482036040860152614c8c82826148de565b9150506060830151614ca16060860182614cc6565b5060808301518482036080860152614cb982826148de565b9150508091505092915050565b614ccf81614f8d565b82525050565b614cde81614f8d565b82525050565b6000614cf082846148ad565b915081905092915050565b6000614d0782846149a6565b915081905092915050565b6000614d1d82614a34565b9150819050919050565b6000614d3282614a74565b9150819050919050565b6000614d4782614a8e565b9150819050919050565b60006020820190508181036000830152614d6b818461478a565b905092915050565b60006020820190508181036000830152614d8d81846147ff565b905092915050565b60006020820190508181036000830152614daf8184614874565b905092915050565b60006020820190508181036000830152614dd18184614917565b905092915050565b60006020820190508181036000830152614df38184614ace565b905092915050565b60006020820190508181036000830152614e158184614bb0565b905092915050565b6000602082019050614e326000830184614cd5565b92915050565b6000604051905081810181811067ffffffffffffffff82111715614e5b57600080fd5b8060405250919050565b600067ffffffffffffffff821115614e7c57600080fd5b601f19601f8301169050602081019050919050565b6000819050602082019050919050565b6000819050602082019050919050565b60008190508160005260206000209050919050565b600081519050919050565b600081519050919050565b600081519050919050565b600081519050919050565b6000602082019050919050565b6000602082019050919050565b600082825260208201905092915050565b600082825260208201905092915050565b600082825260208201905092915050565b600082825260208201905092915050565b600081905092915050565b6000614f6682614f6d565b9050919050565b600073ffffffffffffffffffffffffffffffffffffffff82169050919050565b6000819050919050565b82818337600083830152505050565b60005b83811015614fc4578082015181840152602081019050614fa9565b83811115614fd3576000848401525b50505050565b6000601f19601f8301169050919050565b614ff381614f5b565b8114614ffe57600080fd5b50565b61500a81614f8d565b811461501557600080fd5b5056fea365627a7a72315820be7d9046fa0b5a4e85f728dbfd0470acf8f2be8f6499f237fd7a369877457aad6c6578706572696d656e74616cf564736f6c63430005100040",
  "source": "pragma solidity >=0.4.22 <0.6.0;\npragma experimental ABIEncoderV2;\n\ncontract akys {\n    constructor() public {\n        UserAuth[msg.sender] = \"ADMIN\";\n    }\n\n    struct NeedOffer {\n        string needID;\n        string personalDataHash;\n        string needType;\n        uint256 needAmount;\n    }\n\n    struct SupportOffer {\n        string supportID;\n        string personalDataHash;\n        string supportType;\n        uint256 supportAmount;\n        string sendType;\n    }\n\n    // Total Count of Offers\n    uint256 TotalCountSupportOffers;\n    uint256 TotalCountNeedOffers;\n\n    // Added Support Offers\n    SupportOffer[] SupportOfferList;\n\n    // Added All Need Offers\n    NeedOffer[] NeedOfferList;\n\n    // Approved Support Offers\n    SupportOffer[] ApprovedSupportOfferList;\n\n    // Approved Need Offers Count\n    NeedOffer[] ApprovedNeedOfferList;\n\n    // Canceled Support Offers\n    SupportOffer[] CanceledSupportOfferList;\n\n    // Canceled Need Offers Count\n    NeedOffer[] CanceledNeedOfferList;\n\n    // User Auth\n    mapping(address => string) UserAuth;\n\n    // Need & Support Maps\n    // supportID -> SupportOffer\n    mapping(string => SupportOffer) SupportOfferMap;\n    // needID -> NeedOffer\n    mapping(string => NeedOffer) NeedOfferMap;\n\n    // Status of Offers\n    // supportID -> Status\n    mapping(string => string) SupportOfferStatus;\n    // needID -> Status\n    mapping(string => string) NeedOfferStatus;\n\n    modifier checkAuth(string memory _role) {\n        require(\n            keccak256(abi.encode(UserAuth[msg.sender])) ==\n                keccak256(abi.encode(_role))\n        );\n        _;\n    }\n\n    // Set User Role to a User Address\n    function setUser(address _userAddress, string memory _role)\n        public\n        checkAuth(\"ADMIN\")\n    {\n        UserAuth[_userAddress] = _role;\n    }\n\n    // Get User's Role\n    function getUserAuth(address _userAddress)\n        public\n        view\n        checkAuth(\"ADMIN\")\n        returns (string memory)\n    {\n        return UserAuth[_userAddress];\n    }\n\n    // Create a new Support\n    function createSupport(\n        string memory _supportID,\n        string memory _personalDataHash,\n        string memory _supportType,\n        uint256 _supportAmount,\n        string memory _sendType\n    ) public checkAuth(\"CREATER\") {\n        SupportOffer memory newSupportOffer = SupportOffer({\n            supportID: _supportID,\n            supportType: _supportType,\n            personalDataHash: _personalDataHash,\n            supportAmount: _supportAmount,\n            sendType: _sendType\n        });\n\n        if (SupportOfferList.length == 0) {\n            SupportOfferList.push(newSupportOffer);\n        } else {\n            uint256 num = 1000000000;\n            for (uint256 i = 0; i < SupportOfferList.length; i++) {\n                if (\n                    keccak256(\n                        abi.encodePacked(SupportOfferList[i].supportID)\n                    ) == keccak256(abi.encodePacked(\"\"))\n                ) {\n                    num = i;\n                    break;\n                }\n            }\n            if (num != 1000000000) {\n                SupportOfferList[num] = newSupportOffer;\n            } else {\n                SupportOfferList.push(newSupportOffer);\n            }\n        }\n\n        SupportOfferMap[_supportID] = newSupportOffer;\n        SupportOfferStatus[_supportID] = \"WAITING\";\n    }\n\n    // Create a new Need\n    function createNeed(\n        string memory _needID,\n        string memory _personalDataHash,\n        string memory _needType,\n        uint256 _needAmount\n    ) public checkAuth(\"CREATER\") {\n        NeedOffer memory newNeedOffer = NeedOffer({\n            personalDataHash: _personalDataHash,\n            needID: _needID,\n            needType: _needType,\n            needAmount: _needAmount\n        });\n\n        if (NeedOfferList.length == 0) {\n            NeedOfferList.push(newNeedOffer);\n        } else {\n            uint256 num = 1000000000;\n            for (uint256 i = 0; i < NeedOfferList.length; i++) {\n                if (\n                    keccak256(abi.encodePacked(NeedOfferList[i].needID)) ==\n                    keccak256(abi.encodePacked(\"\"))\n                ) {\n                    num = i;\n                    break;\n                }\n            }\n            if (num != 1000000000) {\n                NeedOfferList[num] = newNeedOffer;\n            } else {\n                NeedOfferList.push(newNeedOffer);\n            }\n        }\n\n        NeedOfferMap[_needID] = newNeedOffer;\n        NeedOfferStatus[_needID] = \"WAITING\";\n    }\n\n    function showSupport(string memory _supportID)\n        public\n        view\n        returns (SupportOffer memory)\n    {\n        return SupportOfferMap[_supportID];\n    }\n\n    function showNeed(string memory _needID)\n        public\n        view\n        returns (NeedOffer memory)\n    {\n        return NeedOfferMap[_needID];\n    }\n\n    function approveSupport(string memory _supportID)\n        public\n        checkAuth(\"CHECKER\")\n    {\n        SupportOfferStatus[_supportID] = \"APPROVED\";\n        if (ApprovedSupportOfferList.length == 0) {\n            ApprovedSupportOfferList.push(SupportOfferMap[_supportID]);\n            for (uint256 j = 0; j < SupportOfferList.length; j++) {\n                if (\n                    keccak256(\n                        abi.encodePacked(SupportOfferList[j].supportID)\n                    ) ==\n                    keccak256(\n                        abi.encodePacked(SupportOfferMap[_supportID].supportID)\n                    )\n                ) {\n                    delete SupportOfferList[j];\n                    break;\n                }\n            }\n        } else {\n            bool check = false;\n            for (uint256 i = 0; i < ApprovedSupportOfferList.length; i++) {\n                if (\n                    keccak256(\n                        abi.encodePacked(ApprovedSupportOfferList[i].supportID)\n                    ) == keccak256(abi.encodePacked(\"\"))\n                ) {\n                    for (uint256 j = 0; j < SupportOfferList.length; j++) {\n                        if (\n                            keccak256(\n                                abi.encodePacked(SupportOfferList[j].supportID)\n                            ) ==\n                            keccak256(\n                                abi.encodePacked(\n                                    SupportOfferMap[_supportID].supportID\n                                )\n                            )\n                        ) {\n                            ApprovedSupportOfferList[i] = SupportOfferList[j];\n                            delete SupportOfferList[j];\n                            check = true;\n                            break;\n                        }\n                    }\n                }\n            }\n            if (!check) {\n                ApprovedSupportOfferList.push(SupportOfferMap[_supportID]);\n                for (uint256 j = 0; j < SupportOfferList.length; j++) {\n                    if (\n                        keccak256(\n                            abi.encodePacked(SupportOfferList[j].supportID)\n                        ) ==\n                        keccak256(\n                            abi.encodePacked(\n                                SupportOfferMap[_supportID].supportID\n                            )\n                        )\n                    ) {\n                        delete SupportOfferList[j];\n                        break;\n                    }\n                }\n            }\n        }\n    }\n\n    function approveNeed(string memory _needID) public checkAuth(\"CHECKER\") {\n        NeedOfferStatus[_needID] = \"APPROVED\";\n        if (ApprovedNeedOfferList.length == 0) {\n            ApprovedNeedOfferList.push(NeedOfferMap[_needID]);\n            for (uint256 j = 0; j < NeedOfferList.length; j++) {\n                if (\n                    keccak256(abi.encodePacked(NeedOfferList[j].needID)) ==\n                    keccak256(abi.encodePacked(NeedOfferMap[_needID].needID))\n                ) {\n                    delete NeedOfferList[j];\n                    break;\n                }\n            }\n        } else {\n            bool check = false;\n            for (uint256 i = 0; i < ApprovedNeedOfferList.length; i++) {\n                if (\n                    keccak256(\n                        abi.encodePacked(ApprovedNeedOfferList[i].needID)\n                    ) == keccak256(abi.encodePacked(\"\"))\n                ) {\n                    for (uint256 j = 0; j < NeedOfferList.length; j++) {\n                        if (\n                            keccak256(\n                                abi.encodePacked(NeedOfferList[j].needID)\n                            ) ==\n                            keccak256(\n                                abi.encodePacked(NeedOfferMap[_needID].needID)\n                            )\n                        ) {\n                            ApprovedNeedOfferList[i] = NeedOfferList[j];\n                            delete NeedOfferList[j];\n                            check = true;\n                            break;\n                        }\n                    }\n                }\n            }\n            if (!check) {\n                ApprovedNeedOfferList.push(NeedOfferMap[_needID]);\n                for (uint256 j = 0; j < NeedOfferList.length; j++) {\n                    if (\n                        keccak256(abi.encodePacked(NeedOfferList[j].needID)) ==\n                        keccak256(\n                            abi.encodePacked(NeedOfferMap[_needID].needID)\n                        )\n                    ) {\n                        delete NeedOfferList[j];\n                        break;\n                    }\n                }\n            }\n        }\n    }\n\n    function cancelSupport(string memory _supportID)\n        public\n        checkAuth(\"CHECKER\")\n    {\n        CanceledSupportOfferList.push(SupportOfferMap[_supportID]);\n        if (\n            keccak256(abi.encodePacked(SupportOfferStatus[_supportID])) ==\n            keccak256(abi.encodePacked(\"WAITING\"))\n        ) {\n            for (uint128 i = 0; i < SupportOfferList.length; i++) {\n                if (\n                    keccak256(abi.encode(SupportOfferList[i].supportID)) ==\n                    keccak256(abi.encode(SupportOfferMap[_supportID].supportID))\n                ) {\n                    delete SupportOfferList[i];\n                    break;\n                }\n            }\n        } else if (\n            keccak256(abi.encodePacked(SupportOfferStatus[_supportID])) ==\n            keccak256(abi.encodePacked(\"APPROVED\"))\n        ) {\n            for (uint128 i = 0; i < ApprovedSupportOfferList.length; i++) {\n                if (\n                    keccak256(\n                        abi.encode(ApprovedSupportOfferList[i].supportID)\n                    ) ==\n                    keccak256(abi.encode(SupportOfferMap[_supportID].supportID))\n                ) {\n                    delete ApprovedSupportOfferList[i];\n                    break;\n                }\n            }\n        }\n        delete SupportOfferMap[_supportID];\n    }\n\n    function cancelNeed(string memory _needID) public checkAuth(\"CHECKER\") {\n        CanceledNeedOfferList.push(NeedOfferMap[_needID]);\n        if (\n            keccak256(abi.encodePacked(NeedOfferStatus[_needID])) ==\n            keccak256(abi.encodePacked(\"WAITING\"))\n        ) {\n            for (uint128 i = 0; i < NeedOfferList.length; i++) {\n                if (\n                    keccak256(abi.encode(NeedOfferList[i].needID)) ==\n                    keccak256(abi.encode(NeedOfferMap[_needID].needID))\n                ) {\n                    delete NeedOfferList[i];\n                    break;\n                }\n            }\n        } else if (\n            keccak256(abi.encodePacked(NeedOfferStatus[_needID])) ==\n            keccak256(abi.encodePacked(\"APPROVED\"))\n        ) {\n            for (uint128 i = 0; i < ApprovedNeedOfferList.length; i++) {\n                if (\n                    keccak256(abi.encode(ApprovedNeedOfferList[i].needID)) ==\n                    keccak256(abi.encode(NeedOfferMap[_needID].needID))\n                ) {\n                    delete ApprovedNeedOfferList[i];\n                    break;\n                }\n            }\n        }\n        delete NeedOfferMap[_needID];\n    }\n\n    function showSupports() public view returns (SupportOffer[] memory) {\n        return SupportOfferList;\n    }\n\n    function showNeeds() public view returns (NeedOffer[] memory) {\n        return NeedOfferList;\n    }\n\n    function showAllApprovedSupports()\n        public\n        view\n        returns (SupportOffer[] memory)\n    {\n        return ApprovedSupportOfferList;\n    }\n\n    function showAllApprovedNeeds() public view returns (NeedOffer[] memory) {\n        return ApprovedNeedOfferList;\n    }\n\n    function showSupportStatus(string memory _supportID)\n        public\n        view\n        checkAuth(\"CHECKER\")\n        returns (string memory)\n    {\n        return SupportOfferStatus[_supportID];\n    }\n\n    function showNeedStatus(string memory _needID)\n        public\n        view\n        checkAuth(\"CHECKER\")\n        returns (string memory)\n    {\n        return NeedOfferStatus[_needID];\n    }\n\n    function showCanceledSupports()\n        public\n        view\n        returns (SupportOffer[] memory)\n    {\n        return CanceledSupportOfferList;\n    }\n\n    function showCanceledNeeds() public view returns (NeedOffer[] memory) {\n        return CanceledNeedOfferList;\n    }\n\n    function showTotalSupportCount() public view returns (uint256 count) {\n        return SupportOfferList.length;\n    }\n\n    function showTotalNeedCount() public view returns (uint256 count) {\n        return NeedOfferList.length;\n    }\n}\n",
  "sourcePath": "/Users/halim/Desktop/Projects/Emre/DepoZinciri/contracts/akys.sol",
  "compiler": {
    "name": "solc",
    "version": "0.5.16+commit.9c3226ce.Emscripten.clang"
  },
  "schemaVersion": "3.4.16",
  "updatedAt": "2024-04-16T21:13:06.099Z",
  "networkType": "ethereum",
  "devdoc": {
    "methods": {}
  },
  "userdoc": {
    "methods": {}
  }
}